:0400000006EF00F017
:100008005DEFFFF07F9C7F8E49ECFFF071ECFFF015
:100018003AECFFF010EF00F06CECFFF014EF00F09A
:04002800FFD71200EC
:020000040001F9
:10FE660048656C6C6F20576F726C64210A00928033
:10FE76000F0125810001010EC26E300EC16EF60E15
:10FE8600C06E1200C282C2B2FED71200AB8EAC9810
:10FE9600AC94AC8A6596670EAF6E948C1200196EA0
:10FEA600DE5059ECFFF0192EFBD712009EA8FED7A4
:10FEB600AD6E1200F2A41100912AF9ECFFF045ECA8
:10FEC600FFF0C4509CECFFF0C3509CECFFF0F294A2
:10FED6001100870ED56EF28AF28E12008A6AC00E63
:10FEE600936E280EE3ECFFF0300EB2ECFFF00A0E34
:10FEF600EAECFFF0280EB2ECFFF00A0EEAECFFF097
:10FF0600280EB2ECFFF00A0EEAECFFF00F0EB2EC90
:10FF1600FFF00A0EEAECFFF0010EB2ECFFF0020E63
:10FF2600E3ECFFF0060EB2ECFFF00A0EEAECFFF08F
:10FF360012001A6E1A38A1ECFFF01A500F0B176E4A
:10FF46000A0E1760070F260F1724C0ECFFF01200E9
:10FF5600186EDE50C0ECFFF0182EFBD71200176E9D
:10FF660017380F0B8A6E8A98D1ECFFF017500F0BDB
:10FF76008A6E8A98D1ECFFF01200176E17380F0BB5
:10FF86008A6E8A88D1ECFFF017500F0B8A6E8A882A
:10FF9600D1ECFFF00A0EEAECFFF0120000000000C0
:10FFA6000000000000000000000000008A8A000037
:10FFB6000000000000000000000000008A9A120005
:10FFC600166EFA0EEAECFFF0162EFBD71200146E30
:10FFD600143A0F0E1414156EF00E1416F4ECFFF00E
:10FFE6001200000E1406155AFDE21200010EB2ECC4
:0AFFF600FFF0020EE3ECFFF0120032
:020000040030CA
:0700000015137F00B98B917D
:06000800FFC0FFE0FF4015
:00000001FF
