:0400000006EF00F017
:1000080058EFFEF07F9C7F8EBAECFEF035ECFEF0E8
:1000180049ECFFF022EC00F0000E956E000E9A6E8F
:10002800000E946E000E996EFF0E8752000E326E0F
:10003800000E316E000E826E27EF00F0050E096E7D
:10004800000E086E120082ECFEF0000E0B6E0C6EB5
:100058000D6E0E6E0F6E106E00EE11F0000E056E36
:1000680036EC00F066ECFFF0006EFF0E005CFAE084
:100078000D0E005C0AE000C0EEFF0550052A055091
:100088000050FF0E2CECFFF0EDD72DD00BC006F082
:100098000CC007F00B500C500650075058EC00F0FD
:1000A8007DECFEF0D5EF00F00750065006C01BF0BF
:1000B80007C01CF00C0E1E6E000E1D6E9AECFEF0B2
:1000C8001F5020501FC018F020C01AF0010E176EE4
:1000D800000E196E85ECFEF018C007F01AC006F085
:1000E80007500650120000EE11F0040E055C09E0FE
:1000F800030E055C11E0020E055C17E0010E055CBD
:100108001BE0A5EC00F0B4EC00F0C3EC00F0C8EC88
:1001180000F0CBEC00F0BAD7B4EC00F0C3EC00F080
:10012800C8EC00F0CBEC00F0B1D7C3EC00F0C8ECA1
:1001380000F0CBEC00F0AAD7C8EC00F0CBEC00F054
:10014800A5D7030E1B6EE80E1C6E000E1D6EEECFBB
:100158001EF09AECFEF020C00BF01FC00CF012004D
:10016800000E1B6E640E1C6E000E1D6EEECF1EF090
:100178009AECFEF020C00DF01FC00EF012000A0E1F
:10018800EE02F3CF0FF01200EECF10F012000F5076
:1001980010240E26D8B00D2A0E500C260D500B2216
:1001A8001200325009E1315007E160ECFFF0006EB7
:1001B8000A0E005C48E0F5D731C002F031503250E9
:1001C800D8900234D8A019D031C01AF032C018F033
:1001D8008BECFEF015C031F016C032F01FEC01F0C8
:1001E8000A503FE0F8EF00F082503BE0D8908232AE
:1001F800D8900A060A5035E0F7D71FEC01F00A50EC
:1002080030E00BEF01F0010E826E0A0605D0FF0EFA
:10021800825C27E08250F7E00A5023E0FF0E825C00
:1002280020E0D8908236D890010E82260A060A501D
:100238000A5017E0F3D731C01AF032C018F008C0DE
:1002480019F009C017F0FF0E0A6E315032500A2A11
:100258000A5085ECFEF01A5018501A34D8A0F7D777
:0E0268001200000E326E000E316ED9EF00F063
:020000040001F9
:10FC5C0048656C6C6F20576F726C64210A0092803F
:10FC6C000F0125810001010EC26E300EC16EF60E21
:10FC7C00C06E1200C282C2B2FED71200AB8EAC981C
:10FC8C00AC94AC8A6596670EAF6E948C1200336E92
:10FC9C00DE5054ECFEF0332EFBD712009EA8FED79C
:10FCAC00AD6E1200F2A411008E2A42ECFFF040EC73
:10FCBC00FEF0C450E5ECFEF0C350E5ECFEF0C4CF12
:10FCCC0019F0C3CF17F006C01AF007C018F01A507D
:10FCDC0018501950175085ECFEF01A5018501AC0D5
:10FCEC0031F018C032F031503250F2941100870EBE
:10FCFC00D56EF28AF28E1200F29AF29E1200175012
:10FD0C00185E1950D8A0193C1A5EFF0E1A18156E01
:10FD1C00FF0E1818166EFF0E165C01E01200FE0E98
:10FD2C00166E010E1526120000011C501E02F4CF97
:10FD3C0020F0F3CF1FF01B501D02F4CF22F0F3CFB5
:10FD4C0021F01C501D02F35000012026F4502122FA
:10FD5C00E86A22221B501E02F3502026F450212266
:10FD6C00E86A2222000112008A6AC00E936E280EE5
:10FD7C002CECFFF0300EFBECFEF00A0E33ECFFF037
:10FD8C00280EFBECFEF00A0E33ECFFF0280EFBEC19
:10FD9C00FEF00A0E33ECFFF00F0EFBECFEF00A0E39
:10FDAC0033ECFFF0010EFBECFEF0020E2CECFFF03E
:10FDBC00060EFBECFEF00A0E33ECFFF01200346E74
:10FDCC003438EAECFEF034500F0B2F6E0A0E2F6015
:10FDDC00070F260F2F2409ECFFF01200306EDE50B7
:10FDEC0009ECFFF0302EFBD712002F6E2F380F0BC3
:10FDFC008A6E8A981AECFFF02F500F0B8A6E8A9835
:10FE0C001AECFFF012002F6E2F380F0B8A6E8A88B7
:10FE1C001AECFFF02F500F0B8A6E8A881AECFFF049
:10FE2C000A0E33ECFFF0120000000000000000008E
:10FE3C0000000000000000008A8A000000000000A2
:10FE4C0000000000000000008A9A12002E6EFA0ECC
:10FE5C0033ECFFF02E2EFBD712002C6E2C3A0F0E2B
:10FE6C002C142D6EF00E2C163DECFFF01200000E33
:10FE7C002C062D5AFDE21200010EFBECFEF0020ED8
:10FE8C002CECFFF012000F01538D00018D6A120053
:10FE9C000F0E966E020EEAECFFF084CF28F0F00EF7
:10FEAC00966E020EEAECFFF084CF29F02850291050
:10FEBC002A6F12004EECFFF07E0E2A5C81E01200DD
:10FECC004EECFFF0EE0E2A5C2AE0ED0E2A5C30E0E0
:10FEDC00EB0E2A5C36E0DE0E2A5C3CE0DD0E2A5C82
:10FEEC0042E0DB0E2A5C48E0BE0E2A5C4EE0BD0E02
:10FEFC002A5C54E0BB0E2A5C5AE0B70E2A5C62E026
:10FF0C007D0E2A5C03E000E0FF0E1200300E2B6E1B
:10FF1C0020EE2BF0010EF4ECFEF0000E1200310E70
:10FF2C002B6E20EE2BF0010EF4ECFEF0010E120005
:10FF3C00320E2B6E20EE2BF0010EF4ECFEF0020EC6
:10FF4C001200330E2B6E20EE2BF0010EF4ECFEF0B3
:10FF5C00030E1200340E2B6E20EE2BF0010EF4EC7F
:10FF6C00FEF0040E1200350E2B6E20EE2BF0010E5F
:10FF7C00F4ECFEF0050E1200360E2B6E20EE2BF07C
:10FF8C00010EF4ECFEF0060E1200370E2B6E20EE76
:10FF9C002BF0010EF4ECFEF0070E1200380E2B6E57
:10FFAC0020EE2BF0010EF4ECFEF0080E1200390ED0
:10FFBC002B6E20EE2BF0010EF4ECFEF0090E12006D
:10FFCC000A0E12000D0E1200256EFA0EF1ECFFF067
:10FFDC00252EFBD71200236E233A0F0E2314246E0A
:10FFEC00F00E2316FBECFFF01200000E2306245A31
:04FFFC00FDE2120010
:020000040030CA
:0700000015137F00B98B917D
:06000800FFC0FFE0FF4015
:00000001FF
