:0400000006EF00F017
:10000800ECEFFEF07F9C7F8E71ECFFF0C9ECFEF008
:1000180000ECFFF018EC00F0000E976E000E9A6EE0
:10002800000E946E26EF00F012001FECFFF0FF5C4C
:10003800FCE0006EB75C06E0010E322600509CEC36
:10004800FFF0F3D7090E046E050E066E0F0E056E4F
:10005800070E076E07C083FF05C088FF52EC00F04B
:1000680007C083FF05C088FFFF0E07180A6EFF0E42
:1000780005180B6E0AC083FF0BC088FF010E0B2208
:10008800D8B00A3C0AC083FF0BC088FF000E836EFD
:10009800FF0E886EFBECFEF059EF00F00450055E91
:1000A8000650D8A0063C075E12005DEC00F0FDD7B4
:0800B8001200010E826E12001D
:020000040001F9
:10FD840048656C6C6F20576F726C64210A00928016
:10FD94000F0125810001010EC26E300EC16EF60EF8
:10FDA400C06E1200C282C2B2FED71200AB8EAC98F3
:10FDB400AC94AC8A6596670EAF6E948C1200196E83
:10FDC400DE50E8ECFEF0192EFBD712009EA8FED7F9
:10FDD400AD6E1200F2A41100912AF9ECFFF0D4ECFC
:10FDE400FEF0C4509CECFFF0C3509CECFFF0F29486
:10FDF4001100870ED56EF28AF28E12000F01538D18
:10FE040000018D6A12000F0E966E020E5BECFFF07D
:10FE140084CF11F0F00E966E020E5BECFFF084CFEF
:10FE240012F011501210876E90CF13F0120005ECEF
:10FE3400FFF07E0E135C39E0120005ECFFF0EE0ECD
:10FE4400135C21E0ED0E135C20E0EB0E135C1BE071
:10FE5400DE0E135C1EE0DD0E135C1DE0DB0E135C96
:10FE64001CE0BE0E135C1BE0BD0E135C1AE0BB0E5F
:10FE7400135C19E0B70E135C1AE07D0E135CBEE050
:10FE840000E0FF0E1200010E1200020E1200030E1B
:10FE94001200040E1200050E1200060E1200070EC8
:10FEA4001200080E1200090E12000A0E12000D0EA6
:10FEB40012000E6EFA0E62ECFFF00E2EFBD712004B
:10FEC4000C6E0C3A0F0E0C140D6EF00E0C166CEC3E
:10FED400FFF01200000E0C060D5AFDE212008A6AB1
:10FEE400C00E936E280EE3ECFFF0300EB2ECFFF080
:10FEF4000A0EEAECFFF0280EB2ECFFF00A0EEAEC70
:10FF0400FFF0280EB2ECFFF00A0EEAECFFF00F0E41
:10FF1400B2ECFFF00A0EEAECFFF0010EB2ECFFF0D7
:10FF2400020EE3ECFFF0060EB2ECFFF00A0EEAEC70
:10FF3400FFF012001A6E1A38A1ECFFF01A500F0BE2
:10FF4400176E0A0E1760070F260F1724C0ECFFF078
:10FF54001200186EDE50C0ECFFF0182EFBD7120012
:10FF6400176E17380F0B8A6E8A98D1ECFFF0175072
:10FF74000F0B8A6E8A98D1ECFFF01200176E1738B7
:10FF84000F0B8A6E8A88D1ECFFF017500F0B8A6E24
:10FF94008A88D1ECFFF00A0EEAECFFF012000000B0
:10FFA40000000000000000000000000000008A8A39
:10FFB40000000000000000000000000000008A9A19
:10FFC4001200166EFA0EEAECFFF0162EFBD71200A2
:10FFD400146E143A0F0E1414156EF00E1416F4EC7D
:10FFE400FFF01200000E1406155AFDE21200010E75
:0CFFF400B2ECFFF0020EE3ECFFF0120094
:020000040030CA
:0700000015137F00B98B917D
:06000800FFC0FFE0FF4015
:00000001FF
