:0400000006EF00F017
:10000800ECEFFEF07F9C7F8E71ECFFF0C9ECFEF008
:1000180000ECFFF01DEF00F01FECFFF0FF5CFCE0D0
:10002800146EB75C06E0010E202614509CECFFF01D
:10003800F3D7FBECFEF021EF00F0FFD7120012001F
:020000040001F9
:10FD840048656C6C6F20576F726C64210A00928016
:10FD94000F0125810001010EC26E300EC16EF60EF8
:10FDA400C06E1200C282C2B2FED71200AB8EAC98F3
:10FDB400AC94AC8A6596670EAF6E948C1200236E79
:10FDC400DE50E8ECFEF0232EFBD712009EA8FED7EF
:10FDD400AD6E1200F2A41100912AF9ECFFF0D4ECFC
:10FDE400FEF0C4509CECFFF0C3509CECFFF0F29486
:10FDF4001100870ED56EF28AF28E12000F01538D18
:10FE040000018D6A12000F0E966E020E5BECFFF07D
:10FE140084CF1BF0F00E966E020E5BECFFF084CFE5
:10FE24001CF01B501C10876E90CF1DF0120005ECC7
:10FE3400FFF07E0E1D5C39E0120005ECFFF0EE0EC3
:10FE44001D5C21E0ED0E1D5C20E0EB0E1D5C1BE053
:10FE5400DE0E1D5C1EE0DD0E1D5C1DE0DB0E1D5C78
:10FE64001CE0BE0E1D5C1BE0BD0E1D5C1AE0BB0E4B
:10FE74001D5C19E0B70E1D5C1AE07D0E1D5CBEE032
:10FE840000E0FF0E1200010E1200020E1200030E1B
:10FE94001200040E1200050E1200060E1200070EC8
:10FEA4001200080E1200090E12000A0E12000D0EA6
:10FEB4001200186EFA0E62ECFFF0182EFBD7120037
:10FEC400166E163A0F0E1614176EF00E16166CEC0C
:10FED400FFF01200000E1606175AFDE212008A6A9D
:10FEE400C00E936E280EE3ECFFF0300EB2ECFFF080
:10FEF4000A0EEAECFFF0280EB2ECFFF00A0EEAEC70
:10FF0400FFF0280EB2ECFFF00A0EEAECFFF00F0E41
:10FF1400B2ECFFF00A0EEAECFFF0010EB2ECFFF0D7
:10FF2400020EE3ECFFF0060EB2ECFFF00A0EEAEC70
:10FF3400FFF01200246E2438A1ECFFF024500F0BC4
:10FF4400216E0A0E2160070F260F2124C0ECFFF05A
:10FF54001200226EDE50C0ECFFF0222EFBD71200FE
:10FF6400216E21380F0B8A6E8A98D1ECFFF0215054
:10FF74000F0B8A6E8A98D1ECFFF01200216E2138A3
:10FF84000F0B8A6E8A88D1ECFFF021500F0B8A6E1A
:10FF94008A88D1ECFFF00A0EEAECFFF012000000B0
:10FFA40000000000000000000000000000008A8A39
:10FFB40000000000000000000000000000008A9A19
:10FFC4001200206EFA0EEAECFFF0202EFBD712008E
:10FFD4001E6E1E3A0F0E1E141F6EF00E1E16F4EC4B
:10FFE400FFF01200000E1E061F5AFDE21200010E61
:0CFFF400B2ECFFF0020EE3ECFFF0120094
:020000040030CA
:0700000015137F00B98B917D
:06000800FFC0FFE0FF4015
:00000001FF
