:0400000006EF00F017
:10000800B7EFFEF07F9C7F8E71ECFFF094ECFEF072
:1000180002ECFFF0000E956E000E9A6E000E946EC4
:100028002CEF00F012001FECFFF00E6EFF0E0E5CBE
:10003800FAE00D0E0E5C12E00EC0EEFF1350132A0C
:1000480013500E509CECFFF0FF0EE3ECFFF0EBD7E3
:1000580000EE14F0000E136E17EC00F0F9ECFFF050
:1000680000EE14F0EE509CECFFF01350132EFAD76C
:10007800090E026E050E046E0F0E036E070E056E56
:1000880005C083FF03C088FF000E036E05C083FF11
:1000980003C088FF000E836EFF0E886EC8ECFEF06A
:1000A80056EF00F059EC00F0FDD7010E826E1200F9
:020000040001F9
:10FD1A0048656C6C6F20576F726C64210A00928080
:10FD2A000F0125810001010EC26E300EC16EF60E62
:10FD3A00C06E1200C282C2B2FED71200AB8EAC985D
:10FD4A00AC94AC8A6596670EAF6E948C1200266EE0
:10FD5A00DE50B3ECFEF0262EFBD712009EA8FED78B
:10FD6A00AD6E1200F2A41100912AF9ECFFF09FEC9B
:10FD7A00FEF0C4509CECFFF0C3509CECFFF0FF0E69
:10FD8A00256EF2941100870ED56EF28AF28E120059
:10FD9A000250035E0450D8A0043C055EFF0E05180D
:10FDAA00006EFF0E0318016EFF0E015C01E01200E7
:10FDBA00FE0E016E010E0026120000010750090214
:10FDCA00F4CF0BF0F3CF0AF006500802F4CF0DF08F
:10FDDA00F3CF0CF007500802F35000010B26F45041
:10FDEA000C22E86A0D2206500902F3500B26F45041
:10FDFA000C22E86A0D22000112000F01538D000146
:10FE0A008D6A12000F0E966E020E5BECFFF084CF25
:10FE1A001DF0F00E966E020E5BECFFF084CF1EF022
:10FE2A001D501E101F6F120007ECFFF07E0E1F5CA4
:10FE3A0039E0120007ECFFF0EE0E1F5C21E0ED0E38
:10FE4A001F5C20E0EB0E1F5C1FE0DE0E1F5C1EE055
:10FE5A00DD0E1F5C1DE0DB0E1F5C1CE0BE0E1F5C8E
:10FE6A001BE0BD0E1F5C1AE0BB0E1F5C19E0B70E4B
:10FE7A001F5C1AE07D0E1F5CC0E000E0FF0E12005E
:10FE8A00010E1200020E1200030E1200040E1200DE
:10FE9A00050E1200060E1200070E1200080E1200BE
:10FEAA00090E12000A0E12000D0E12001A6EFA0E38
:10FEBA0062ECFFF01A2EFBD71200186E183A0F0EDA
:10FECA001814196EF00E18166CECFFF01200000EE2
:10FEDA001806195AFDE212008A6AC00E936E280E9D
:10FEEA00E3ECFFF0300EB2ECFFF00A0EEAECFFF0A2
:10FEFA00280EB2ECFFF00A0EEAECFFF0280EB2EC84
:10FF0A00FFF00A0EEAECFFF00F0EB2ECFFF00A0E59
:10FF1A00EAECFFF0010EB2ECFFF0020EE3ECFFF0A8
:10FF2A00060EB2ECFFF00A0EEAECFFF01200276EA2
:10FF3A002738A1ECFFF027500F0B236E0A0E23601F
:10FF4A00070F260F2324C0ECFFF01200246EDE50A8
:10FF5A00C0ECFFF0242EFBD71200236E23380F0BC0
:10FF6A008A6E8A98D1ECFFF023500F0B8A6E8A981A
:10FF7A00D1ECFFF01200236E23380F0B8A6E8A88A9
:10FF8A00D1ECFFF023500F0B8A6E8A88D1ECFFF078
:10FF9A000A0EEAECFFF01200000000000000000068
:10FFAA0000000000000000008A8A00000000000033
:10FFBA0000000000000000008A9A1200226EFA0E69
:10FFCA00EAECFFF0222EFBD71200206E203A0F0E29
:10FFDA002014216EF00E2016F4ECFFF01200000E31
:10FFEA002006215AFDE21200010EB2ECFFF0020EC9
:06FFFA00E3ECFFF0120031
:020000040030CA
:0700000015137F00B98B917D
:06000800FFC0FFE0FF4015
:00000001FF
