:0400000006EF00F017
:10000800A3EFFEF07F9C7F8E71ECFFF080ECFEF09A
:1000180002ECFFF01FEC00F0000E956E000E9A6ED9
:10002800000E946E000E2B6E000E2A6E000E826E6D
:1000380039EF00F012000A0E096E000E086E120069
:100048001FECFFF0006EFF0E005CFAE00D0E005C86
:1000580012E000C0EEFF0550052A055000509CEC48
:10006800FFF0FF0EE3ECFFF0EBD700EE0BF0000E15
:10007800056E24EC00F0F9ECFFF000EE0BF0EE500A
:100088009CECFFF00550052EFAD7000E066EFF0E09
:10009800076EC8ECFEF051EF00F02B5003E12A5038
:1000A80001E1FBD72AC002F02A502B50D890023425
:1000B800D8A018D02AC014F02BC012F0D3ECFEF050
:1000C8000FC02AF010C02BF092EC00F00A503CE070
:1000D8006FEC00F01200D8908232D8900A060A50CD
:1000E80033E0F9D792EC00F00A500A502DE081EC89
:1000F80000F0010E826E0A0605D0FF0E825C24E035
:100108008250F7E00A5020E0D8908236D890010E4D
:1001180082260A060A510A5017E0F6D72AC014F0B8
:100128002BC012F008C013F009C011F0FF0E0A6EC0
:100138002A502B500A2A0A50CDECFEF014501250C7
:100148001434D8A0F7D71200000E2B6E000E2A6EBA
:0401580055EF00F06F
:020000040001F9
:10FCF20048656C6C6F20576F726C64210A009280A9
:10FD02000F0125810001010EC26E300EC16EF60E8A
:10FD1200C06E1200C282C2B2FED71200AB8EAC9885
:10FD2200AC94AC8A6596670EAF6E948C12002C6E02
:10FD3200DE509FECFEF02C2EFBD712009EA8FED7C1
:10FD4200AD6E1200F2A411008E2AF9ECFFF08BECDA
:10FD5200FEF0C4509CECFFF0C3509CECFFF0C4CF0B
:10FD620013F0C3CF11F006C014F007C012F0145004
:10FD7200125013501150CDECFEF01450125014C01A
:10FD82002AF012C02BF02A502B50F2941100870E49
:10FD9200D56EF28AF28E12001150125E1350D8A064
:10FDA200133C145EFF0E14180F6EFF0E1218106E25
:10FDB200FF0E105C01E01200FE0E106E010E0F2607
:10FDC2001200000116501802F4CF1AF0F3CF19F006
:10FDD20015501702F4CF1CF0F3CF1BF01650170288
:10FDE200F35000011A26F4501B22E86A1C22155017
:10FDF2001802F3501A26F4501B22E86A1C22000152
:10FE020012000F01538D00018D6A12000F0E966EC3
:10FE1200020E5BECFFF084CF22F0F00E966E020E23
:10FE22005BECFFF084CF23F022502310246F1200EA
:10FE320007ECFFF07E0E245C39E0120007ECFFF0C5
:10FE4200EE0E245C21E0ED0E245C20E0EB0E245C3F
:10FE52001FE0DE0E245C1EE0DD0E245C1DE0DB0EE6
:10FE6200245C1CE0BE0E245C1BE0BD0E245C1AE088
:10FE7200BB0E245C19E0B70E245C1AE07D0E245CF4
:10FE8200C0E000E0FF0E1200010E1200020E12008E
:10FE9200030E1200040E1200050E1200060E1200CE
:10FEA200070E1200080E1200090E12000A0E1200AE
:10FEB2000D0E12001F6EFA0E62ECFFF01F2EFBD722
:10FEC20012001D6E1D3A0F0E1D141E6EF00E1D1631
:10FED2006CECFFF01200000E1D061E5AFDE212002D
:10FEE2008A6AC00E936E280EE3ECFFF0300EB2EC7D
:10FEF200FFF00A0EEAECFFF0280EB2ECFFF00A0E59
:10FF0200EAECFFF0280EB2ECFFF00A0EEAECFFF08A
:10FF12000F0EB2ECFFF00A0EEAECFFF0010EB2ECAB
:10FF2200FFF0020EE3ECFFF0060EB2ECFFF00A0E59
:10FF3200EAECFFF012002D6E2D38A1ECFFF02D50EF
:10FF42000F0B286E0A0E2860070F260F2824C0EC1C
:10FF5200FFF01200296EDE50C0ECFFF0292EFBD715
:10FF62001200286E28380F0B8A6E8A98D1ECFFF0A7
:10FF720028500F0B8A6E8A98D1ECFFF01200286E7F
:10FF820028380F0B8A6E8A88D1ECFFF028500F0BAD
:10FF92008A6E8A88D1ECFFF00A0EEAECFFF01200BA
:10FFA200000000000000000000000000000000004F
:10FFB2008A8A00000000000000000000000000002B
:10FFC2008A9A1200276EFA0EEAECFFF0272EFBD770
:10FFD2001200256E253A0F0E2514266EF00E2516F8
:10FFE200F4ECFFF01200000E2506265AFDE2120084
:0EFFF200010EB2ECFFF0020EE3ECFFF0120085
:020000040030CA
:0700000015137F00B98B917D
:06000800FFC0FFE0FF4015
:00000001FF
