:0400000006EF00F017
:10000800A3EFFEF07F9C7F8E71ECFFF080ECFEF09A
:1000180002ECFFF01FEC00F0000E956E000E9A6ED9
:10002800000E946E000E316E000E306E000E826E61
:1000380039EF00F012000A0E096E000E086E120069
:100048001FECFFF0006EFF0E005CFAE00D0E005C86
:1000580019E000C0EEFF0550052A055000509CEC41
:10006800FFF0FF0EE3ECFFF0EBD7000E0B6E0C6E0B
:100078000D6E0E6E0F6E106E00EE11F0000E056E16
:1000880024EC00F00CD00BC006F00CC007F00B50AD
:100098000C5006500750C8ECFEF0B1EF00F000EE2F
:1000A80011F0040E055C09E0030E055C11E0020E78
:1000B800055C17E0010E055C1BE081EC00F090EC9C
:1000C80000F09FEC00F0A4EC00F0A7EC00F0DBD708
:1000D80090EC00F09FEC00F0A4EC00F0A7EC00F02E
:1000E800D2D79FEC00F0A4EC00F0A7EC00F0CBD73F
:1000F800A4EC00F0A7EC00F0C6D7030E1B6EE80EC8
:100108001C6E000E1D6EEECF1EF0E2ECFEF020C05D
:100118000BF01FC00CF01200000E1B6E640E1C6E5C
:10012800000E1D6EEECF1EF0E2ECFEF020C00DF0CA
:100138001FC00EF012000A0EEE02F3CF0FF01200ED
:10014800EECF10F012000F5010240E26D8B00D2A52
:100158000E500C260D500B221200315003E1305086
:1001680001E1FBD730C002F030503150D890023452
:10017800D8A018D030C01AF031C018F0D3ECFEF077
:1001880015C030F016C031F0F2EC00F00A503CE037
:10019800CFEC00F01200D8908232D8900A060A50AC
:1001A80033E0F9D7F2EC00F00A500A502DE0E1EC08
:1001B80000F0010E826E0A0605D0FF0E825C24E074
:1001C8008250F7E00A5020E0D8908236D890010E8D
:1001D80082260A060A500A5017E0F6D730C01AF0ED
:1001E80031C018F008C019F009C017F0FF0E0A6EE8
:1001F800305031500A2A0A50CDECFEF01A501850EF
:100208001A34D8A0F7D71200000E316E000E306EE7
:04021800B5EF00F04E
:020000040001F9
:10FCF20048656C6C6F20576F726C64210A009280A9
:10FD02000F0125810001010EC26E300EC16EF60E8A
:10FD1200C06E1200C282C2B2FED71200AB8EAC9885
:10FD2200AC94AC8A6596670EAF6E948C1200326EFC
:10FD3200DE509FECFEF0322EFBD712009EA8FED7BB
:10FD4200AD6E1200F2A411008E2AF9ECFFF08BECDA
:10FD5200FEF0C4509CECFFF0C3509CECFFF0C4CF0B
:10FD620019F0C3CF17F006C01AF007C018F01A50E6
:10FD7200185019501750CDECFEF01A5018501AC0F6
:10FD820030F018C031F030503150F2941100870E2B
:10FD9200D56EF28AF28E12001750185E1950D8A052
:10FDA200193C1A5EFF0E1A18156EFF0E1818166E01
:10FDB200FF0E165C01E01200FE0E166E010E1526F5
:10FDC200120000011C501E02F4CF20F0F3CF1FF0EE
:10FDD2001B501D02F4CF22F0F3CF21F01C501D0264
:10FDE200F35000012026F4502122E86A22221B50FF
:10FDF2001E02F3502026F4502122E86A222200013A
:10FE020012000F01538D00018D6A12000F0E966EC3
:10FE1200020E5BECFFF084CF28F0F00E966E020E1D
:10FE22005BECFFF084CF29F0285029102A6F1200D2
:10FE320007ECFFF07E0E2A5C39E0120007ECFFF0BF
:10FE4200EE0E2A5C21E0ED0E2A5C20E0EB0E2A5C2D
:10FE52001FE0DE0E2A5C1EE0DD0E2A5C1DE0DB0EDA
:10FE62002A5C1CE0BE0E2A5C1BE0BD0E2A5C1AE076
:10FE7200BB0E2A5C19E0B70E2A5C1AE07D0E2A5CE2
:10FE8200C0E000E0FF0E1200010E1200020E12008E
:10FE9200030E1200040E1200050E1200060E1200CE
:10FEA200070E1200080E1200090E12000A0E1200AE
:10FEB2000D0E1200256EFA0E62ECFFF0252EFBD716
:10FEC2001200236E233A0F0E2314246EF00E231613
:10FED2006CECFFF01200000E2306245AFDE2120021
:10FEE2008A6AC00E936E280EE3ECFFF0300EB2EC7D
:10FEF200FFF00A0EEAECFFF0280EB2ECFFF00A0E59
:10FF0200EAECFFF0280EB2ECFFF00A0EEAECFFF08A
:10FF12000F0EB2ECFFF00A0EEAECFFF0010EB2ECAB
:10FF2200FFF0020EE3ECFFF0060EB2ECFFF00A0E59
:10FF3200EAECFFF01200336E3338A1ECFFF03350DD
:10FF42000F0B2E6E0A0E2E60070F260F2E24C0EC0A
:10FF5200FFF012002F6EDE50C0ECFFF02F2EFBD709
:10FF620012002E6E2E380F0B8A6E8A98D1ECFFF09B
:10FF72002E500F0B8A6E8A98D1ECFFF012002E6E73
:10FF82002E380F0B8A6E8A88D1ECFFF02E500F0BA1
:10FF92008A6E8A88D1ECFFF00A0EEAECFFF01200BA
:10FFA200000000000000000000000000000000004F
:10FFB2008A8A00000000000000000000000000002B
:10FFC2008A9A12002D6EFA0EEAECFFF02D2EFBD764
:10FFD20012002B6E2B3A0F0E2B142C6EF00E2B16DA
:10FFE200F4ECFFF01200000E2B062C5AFDE2120078
:0EFFF200010EB2ECFFF0020EE3ECFFF0120085
:020000040030CA
:0700000015137F00B98B917D
:06000800FFC0FFE0FF4015
:00000001FF
