:0400000006EF00F017
:1000080042EFFFF07F9C7F8E5DECFFF071ECFFF01C
:100018004EECFFF010EF00F059ECFFF0C4509CECF0
:10002800FFF0C3509CECFFF047ECFFF01AEF00F034
:10003800100EE3ECFFF0100EE3ECFFF0100EE3EC13
:10004800FFF0100EE3ECFFF0100EE3ECFFF0F9EC1C
:10005800FFF00E509CECFFF00D509CECFFF00C50A4
:100068009CECFFF00B509CECFFF01200012EFED729
:1000780012000001010E076E0001020E086E000159
:10008800030E096E0001040E0A6E0001120E066EC0
:1000980071EC00F02BEC00F0120000010250040299
:1000A800F4CF0CF0F3CF0BF003500502F4CF0EF0B1
:1000B800F3CF0DF002500502F35000010C26F45066
:1000C8000D22E86A0E2203500402F3500C26F45065
:1000D8000D22E86A0E2200011200000106500702F4
:1000E800F4CF0CF0F3CF0BF006500802F3500001E8
:1000F8000C22F4500D22E86A0E2200010650090273
:10010800F4CF10F0F3CF0FF006500A02F3500001BD
:100118001022F4501122E86AF9ECFFF00E509CEC22
:10012800FFF00D509CECFFF00C509CECFFF00B50D6
:100138009CECFFF011509CECFFF010509CECFFF091
:0A0148000F509CECFFF000011200C4
:020000040001F9
:10FE760048656C6C6F20576F726C64210A00F2A49F
:10FE86001100912AF29411009A6A916A870ED56E32
:10FE9600F28AF28E120092800F0125810001010E76
:10FEA600C26E300EC16EF60EC06E1200C282C2B2B3
:10FEB600FED71200AB8EAC98AC94AC8A6596670EF2
:10FEC600AF6E948C1200196EDE506DECFFF0192E99
:10FED600FBD712009EA8FED7AD6E12008A6AC00E2E
:10FEE600936E280EE3ECFFF0300EB2ECFFF00A0E34
:10FEF600EAECFFF0280EB2ECFFF00A0EEAECFFF097
:10FF0600280EB2ECFFF00A0EEAECFFF00F0EB2EC90
:10FF1600FFF00A0EEAECFFF0010EB2ECFFF0020E63
:10FF2600E3ECFFF0060EB2ECFFF00A0EEAECFFF08F
:10FF360012001A6E1A38A1ECFFF01A500F0B176E4A
:10FF46000A0E1760070F260F1724C0ECFFF01200E9
:10FF5600186EDE50C0ECFFF0182EFBD71200176E9D
:10FF660017380F0B8A6E8A98D1ECFFF017500F0BDB
:10FF76008A6E8A98D1ECFFF01200176E17380F0BB5
:10FF86008A6E8A88D1ECFFF017500F0B8A6E8A882A
:10FF9600D1ECFFF00A0EEAECFFF0120000000000C0
:10FFA6000000000000000000000000008A8A000037
:10FFB6000000000000000000000000008A9A120005
:10FFC600166EFA0EEAECFFF0162EFBD71200146E30
:10FFD600143A0F0E1414156EF00E1416F4ECFFF00E
:10FFE6001200000E1406155AFDE21200010EB2ECC4
:0AFFF600FFF0020EE3ECFFF0120032
:020000040030CA
:0700000015137F00B98B917D
:06000800FFC0FFE0FF4015
:00000001FF
