:0400000006EF00F017
:10000800EAEFFEF07F9C7F8E71ECFFF0C7ECFEF00C
:1000180000ECFFF018EC00F0000E956E000E9A6EE2
:10002800000E946E26EF00F012001FECFFF0FF5C4C
:10003800FCE0006EB75C06E0010E322600509CEC36
:10004800FFF0F3D7090E046E050E066E0F0E056E4F
:10005800070E076E07C083FF05C088FF48EC00F055
:10006800000E056E07C083FF05C088FF4FEC00F047
:100078000AC083FF0BC088FF000E836EFF0E886ED8
:10008800FBECFEF05EEF00F00450055E0650D8A0D1
:10009800063C075E1200FF0E07180A6EFF0E0518D1
:1000A8000B6EFF0E0B5C01E01200FE0E0B6E010ED4
:1000B8000A26120063EC00F01BC083FFFBD7010E79
:0400C800826E120032
:020000040001F9
:10FD800048656C6C6F20576F726C64210A0092801A
:10FD90000F0125810001010EC26E300EC16EF60EFC
:10FDA000C06E1200C282C2B2FED71200AB8EAC98F7
:10FDB000AC94AC8A6596670EAF6E948C12001C6E84
:10FDC000DE50E6ECFEF01C2EFBD712009EA8FED7FC
:10FDD000AD6E1200F2A41100912AF9ECFFF0D2EC02
:10FDE000FEF0C4509CECFFF0C3509CECFFF0FF0E03
:10FDF0001B6EF2941100870ED56EF28AF28E1200FD
:10FE00000F01538D00018D6A12000F0E966E020EC7
:10FE10005BECFFF084CF13F0F00E966E020E5BECFD
:10FE2000FFF084CF14F013501410876E90CF15F0AC
:10FE3000120005ECFFF07E0E155C39E0120005ECB7
:10FE4000FFF0EE0E155C21E0ED0E155C20E0EB0EF0
:10FE5000155C1BE0DE0E155C1EE0DD0E155C1DE082
:10FE6000DB0E155C1CE0BE0E155C1BE0BD0E155CC8
:10FE70001AE0BB0E155C19E0B70E155C1AE07D0E9A
:10FE8000155CBEE000E0FF0E1200010E1200020E33
:10FE90001200030E1200040E1200050E1200060ED0
:10FEA0001200070E1200080E1200090E12000A0EB0
:10FEB00012000D0E1200106EFA0E62ECFFF0102E02
:10FEC000FBD712000E6E0E3A0F0E0E140F6EF00ED0
:10FED0000E166CECFFF01200000E0E060F5AFDE23B
:10FEE00012008A6AC00E936E280EE3ECFFF0300E0B
:10FEF000B2ECFFF00A0EEAECFFF0280EB2ECFFF0D5
:10FF00000A0EEAECFFF0280EB2ECFFF00A0EEAEC63
:10FF1000FFF00F0EB2ECFFF00A0EEAECFFF0010E5C
:10FF2000B2ECFFF0020EE3ECFFF0060EB2ECFFF0D5
:10FF30000A0EEAECFFF012001D6E1D38A1ECFFF076
:10FF40001D500F0B196E0A0E1960070F260F19248A
:10FF5000C0ECFFF012001A6EDE50C0ECFFF01A2E5B
:10FF6000FBD71200196E19380F0B8A6E8A98D1ECE4
:10FF7000FFF019500F0B8A6E8A98D1ECFFF0120037
:10FF8000196E19380F0B8A6E8A88D1ECFFF0195060
:10FF90000F0B8A6E8A88D1ECFFF00A0EEAECFFF0B4
:10FFA000120000000000000000000000000000003F
:10FFB00000008A8A0000000000000000000000002D
:10FFC00000008A9A1200186EFA0EEAECFFF0182E62
:10FFD000FBD71200166E163A0F0E1614176EF00E9F
:10FFE0001616F4ECFFF01200000E1606175AFDE28A
:10FFF0001200010EB2ECFFF0020EE3ECFFF0120073
:020000040030CA
:0700000015137F00B98B917D
:06000800FFC0FFE0FF4015
:00000001FF
