:0400000006EF00F017
:10000800E8EFFEF07F9C7F8E71ECFFF0C5ECFEF010
:10001800FCECFEF010EF00F01BECFFF0146E9CEC13
:10002800FFF0F7ECFEF019EF00F0FFD71200120016
:020000040001F9
:10FD7C0048656C6C6F20576F726C64210A0092801E
:10FD8C000F0125810001010EC26E300EC16EF60E00
:10FD9C00C06E1200C282C2B2FED71200AB8EAC98FB
:10FDAC00AC94AC8A6596670EAF6E948C1200226E82
:10FDBC00DE50E4ECFEF0222EFBD712009EA8FED7FC
:10FDCC00AD6E1200F2A41100912AF9ECFFF0D0EC08
:10FDDC00FEF0C4509CECFFF0C3509CECFFF0F2948E
:10FDEC001100870ED56EF28AF28E12000F01538D20
:10FDFC0000018D6A12000F0E966E020E5BECFFF086
:10FE0C0084CF1AF0F00E966E020E5BECFFF084CFEE
:10FE1C001BF01A501B10876E90CF1CF0120001ECD7
:10FE2C00FFF07E0E1C5C3CE0120001ECFFF0FF0EBC
:10FE3C001C5C22E0EE0E1C5C21E0ED0E1C5C20E054
:10FE4C00EB0E1C5C1BE0DE0E1C5C1EE0DD0E1C5C75
:10FE5C001DE0DB0E1C5C1CE0BE0E1C5C1BE0BD0E32
:10FE6C001C5C1AE0BB0E1C5C19E0B70E1C5C1AE0A3
:10FE7C007D0E1C5CBBE018E0000E1200010E12009F
:10FE8C00020E1200030E1200040E1200050E1200D8
:10FE9C00060E1200070E1200080E1200090E1200B8
:10FEAC000A0E12000D0E12001200176EFA0E62EC02
:10FEBC00FFF0172EFBD71200156E153A0F0E151406
:10FECC00166EF00E15166CECFFF01200000E1506F7
:10FEDC00165AFDE212008A6AC00E936E280EE3ECED
:10FEEC00FFF0300EB2ECFFF00A0EEAECFFF0280E39
:10FEFC00B2ECFFF00A0EEAECFFF0280EB2ECFFF0C9
:10FF0C000A0EEAECFFF00F0EB2ECFFF00A0EEAEC70
:10FF1C00FFF0010EB2ECFFF0020EE3ECFFF0060E68
:10FF2C00B2ECFFF00A0EEAECFFF01200236E23385D
:10FF3C00A1ECFFF023500F0B206E0A0E2060070F70
:10FF4C00260F2024C0ECFFF01200216EDE50C0EC16
:10FF5C00FFF0212EFBD71200206E20380F0B8A6E7B
:10FF6C008A98D1ECFFF020500F0B8A6E8A98D1EC56
:10FF7C00FFF01200206E20380F0B8A6E8A88D1ECAD
:10FF8C00FFF020500F0B8A6E8A88D1ECFFF00A0E1E
:10FF9C00EAECFFF01200000000000000000000007E
:10FFAC000000000000008A8A000000000000000031
:10FFBC000000000000008A9A12001F6EFA0EEAEC94
:10FFCC00FFF01F2EFBD712001D6E1D3A0F0E1D14D5
:10FFDC001E6EF00E1D16F4ECFFF01200000E1D0646
:10FFEC001E5AFDE21200010EB2ECFFF0020EE3EC21
:04FFFC00FFF0120000
:020000040030CA
:0700000015137F00B98B917D
:06000800FFC0FFE0FF4015
:00000001FF
