:1000000006F2A41100912AF9ECFFF0E8ECFEF0C42E
:10001000509CECFFF0C3509CECFFF0FF0E006EF222
:10002000941100870ED56EF28AF28E1200EF00F066
:1000300012001FECFFF0FF5CFCE02D6EB75C06E0E9
:10004000010E32262D509CECFFF0F3D7090E316ED5
:10005000050E336E0F0E326E070E346E34C083FF02
:1000600032C088FF48EC00F0000E326E34C083FFCF
:1000700032C088FF4FEC00F037C083FF38C088FFE4
:10008000000E836EFF0E886E11EC00F05EEF00F044
:100090003150325E3350D8A0333C345E1200FF0E34
:1000A0003418376EFF0E3218386EFF0E385C01E0E0
:1000B0001200FE0E386E010E3726120061EC00F0C1
:0800C000FDD7010E826E120053
:020000040001F9
:10FDAC0048656C6C6F20576F726C64210A009280EE
:10FDBC000F0125810001010EC26E300EC16EF60ED0
:10FDCC00C06E1200C282C2B2FED71200AB8EAC98CB
:10FDDC00AC94AC8A6596670EAF6E948C1200486E2C
:10FDEC00DE50FCECFEF0482EFBD712009EA8FED78E
:10FDFC00AD6E12000F01538D00018D6A12000F0EB3
:10FE0C00966E020E5BECFFF084CF40F0F00E966E17
:10FE1C00020E5BECFFF084CF41F040504110876E36
:10FE2C0090CF42F0120005ECFFF07E0E425C39E000
:10FE3C00120005ECFFF0EE0E425C21E0ED0E425C90
:10FE4C0020E0EB0E425C1BE0DE0E425C1EE0DD0EA1
:10FE5C00425C1DE0DB0E425C1CE0BE0E425C1BE013
:10FE6C00BD0E425C1AE0BB0E425C19E0B70E425C60
:10FE7C001AE07D0E425CBEE000E0FF0E1200010EA7
:10FE8C001200020E1200030E1200040E1200050ED8
:10FE9C001200060E1200070E1200080E1200090EB8
:10FEAC0012000A0E12000D0E12003D6EFA0E62ECDC
:10FEBC00FFF03D2EFBD712003B6E3B3A0F0E3B146E
:10FECC003C6EF00E3B166CECFFF01200000E3B0685
:10FEDC003C5AFDE212008A6AC00E936E280EE3ECC7
:10FEEC00FFF0300EB2ECFFF00A0EEAECFFF0280E39
:10FEFC00B2ECFFF00A0EEAECFFF0280EB2ECFFF0C9
:10FF0C000A0EEAECFFF00F0EB2ECFFF00A0EEAEC70
:10FF1C00FFF0010EB2ECFFF0020EE3ECFFF0060E68
:10FF2C00B2ECFFF00A0EEAECFFF01200496E493811
:10FF3C00A1ECFFF049500F0B466E0A0E4660070FFE
:10FF4C00260F4624C0ECFFF01200476EDE50C0ECCA
:10FF5C00FFF0472EFBD71200466E46380F0B8A6E09
:10FF6C008A98D1ECFFF046500F0B8A6E8A98D1EC30
:10FF7C00FFF01200466E46380F0B8A6E8A88D1EC61
:10FF8C00FFF046500F0B8A6E8A88D1ECFFF00A0EF8
:10FF9C00EAECFFF01200000000000000000000007E
:10FFAC000000000000008A8A000000000000000031
:10FFBC000000000000008A9A1200456EFA0EEAEC6E
:10FFCC00FFF0452EFBD71200436E433A0F0E43143D
:10FFDC00446EF00E4316F4ECFFF01200000E4306D4
:10FFEC00445AFDE21200010EB2ECFFF0020EE3ECFB
:04FFFC00FFF0120000
:020000040030CA
:0700000015137F00B98B917D
:06000800FFC0FFE0FF4015
:00000001FF
