:0400000006EF00F017
:10000800ECEFFEF07F9C7F8E71ECFFF0C9ECFEF008
:1000180002ECFFF0000E956E000E9A6E000E946EC4
:100028002CEF00F012001FECFFF0006EFF0E005CDA
:10003800FAE00D0E005C10E000C0EEFF0850082A40
:10004800085000509CECFFF0FF0EE3ECFFF0EBD7FC
:1000580000EE11F017EC00F0F9ECFFF000EE11F0F3
:10006800EE509CECFFF00850082EFAD7090E046EEB
:10007800050E066E0F0E056E070E076E07C083FF8E
:1000880005C088FF000E056E07C083FF05C088FF06
:10009800000E836EFF0E886EFDECFEF054EF00F04C
:1000A80057EC00F0FDD7010E826E120000010A50D5
:1000B8000C02F4CF0EF0F3CF0DF009500B02F4CF81
:1000C80010F0F3CF0FF00A500B02F35000010E2688
:1000D800F4500F22E86A102209500C02F3500E2641
:0C00E800F4500F22E86A10220001120000
:020000040001F9
:10FD840048656C6C6F20576F726C64210A00928016
:10FD94000F0125810001010EC26E300EC16EF60EF8
:10FDA400C06E1200C282C2B2FED71200AB8EAC98F3
:10FDB400AC94AC8A6596670EAF6E948C1200206E7C
:10FDC400DE50E8ECFEF0202EFBD712009EA8FED7F2
:10FDD400AD6E1200F2A41100912AF9ECFFF0D4ECFC
:10FDE400FEF0C4509CECFFF0C3509CECFFF0FF0EFF
:10FDF4001F6EF2941100870ED56EF28AF28E1200F5
:10FE04000F01538D00018D6A12000F0E966E020EC3
:10FE14005BECFFF084CF17F0F00E966E020E5BECF5
:10FE2400FFF084CF18F017501810196F120007EC68
:10FE3400FFF07E0E195C39E0120007ECFFF0EE0EC5
:10FE4400195C21E0ED0E195C20E0EB0E195C1FE05B
:10FE5400DE0E195C1EE0DD0E195C1DE0DB0E195C84
:10FE64001CE0BE0E195C1BE0BD0E195C1AE0BB0E53
:10FE7400195C19E0B70E195C1AE07D0E195CC0E03C
:10FE840000E0FF0E1200010E1200020E1200030E1B
:10FE94001200040E1200050E1200060E1200070EC8
:10FEA4001200080E1200090E12000A0E12000D0EA6
:10FEB4001200146EFA0E62ECFFF0142EFBD712003F
:10FEC400126E123A0F0E1214136EF00E12166CEC20
:10FED400FFF01200000E1206135AFDE212008A6AA5
:10FEE400C00E936E280EE3ECFFF0300EB2ECFFF080
:10FEF4000A0EEAECFFF0280EB2ECFFF00A0EEAEC70
:10FF0400FFF0280EB2ECFFF00A0EEAECFFF00F0E41
:10FF1400B2ECFFF00A0EEAECFFF0010EB2ECFFF0D7
:10FF2400020EE3ECFFF0060EB2ECFFF00A0EEAEC70
:10FF3400FFF01200216E2138A1ECFFF021500F0BCD
:10FF44001D6E0A0E1D60070F260F1D24C0ECFFF066
:10FF540012001E6EDE50C0ECFFF01E2EFBD7120006
:10FF64001D6E1D380F0B8A6E8A98D1ECFFF01D5060
:10FF74000F0B8A6E8A98D1ECFFF012001D6E1D38AB
:10FF84000F0B8A6E8A88D1ECFFF01D500F0B8A6E1E
:10FF94008A88D1ECFFF00A0EEAECFFF012000000B0
:10FFA40000000000000000000000000000008A8A39
:10FFB40000000000000000000000000000008A9A19
:10FFC40012001C6EFA0EEAECFFF01C2EFBD7120096
:10FFD4001A6E1A3A0F0E1A141B6EF00E1A16F4EC5F
:10FFE400FFF01200000E1A061B5AFDE21200010E69
:0CFFF400B2ECFFF0020EE3ECFFF0120094
:020000040030CA
:0700000015137F00B98B917D
:06000800FFC0FFE0FF4015
:00000001FF
